{
  "_format": "hh-sol-artifact-1",
  "contractName": "Donation",
  "sourceName": "contracts/Donation.sol",
  "abi": [
    {
      "inputs": [],
      "stateMutability": "nonpayable",
      "type": "constructor"
    },
    {
      "anonymous": false,
      "inputs": [
        {
          "indexed": true,
          "internalType": "uint256",
          "name": "id",
          "type": "uint256"
        },
        {
          "indexed": false,
          "internalType": "address",
          "name": "owner",
          "type": "address"
        },
        {
          "indexed": false,
          "internalType": "uint256",
          "name": "donationAmount",
          "type": "uint256"
        },
        {
          "indexed": false,
          "internalType": "uint256",
          "name": "donersConut",
          "type": "uint256"
        },
        {
          "indexed": false,
          "internalType": "uint256",
          "name": "startDate",
          "type": "uint256"
        },
        {
          "indexed": false,
          "internalType": "uint256",
          "name": "endDate",
          "type": "uint256"
        },
        {
          "indexed": false,
          "internalType": "uint256",
          "name": "targetPrice",
          "type": "uint256"
        },
        {
          "indexed": false,
          "internalType": "string",
          "name": "category",
          "type": "string"
        },
        {
          "indexed": false,
          "internalType": "string",
          "name": "title",
          "type": "string"
        },
        {
          "indexed": false,
          "internalType": "string",
          "name": "hash",
          "type": "string"
        },
        {
          "indexed": false,
          "internalType": "string",
          "name": "description",
          "type": "string"
        },
        {
          "indexed": false,
          "internalType": "bool",
          "name": "completed",
          "type": "bool"
        }
      ],
      "name": "DonationItemCreated",
      "type": "event"
    },
    {
      "anonymous": false,
      "inputs": [
        {
          "indexed": true,
          "internalType": "uint256",
          "name": "id",
          "type": "uint256"
        },
        {
          "indexed": false,
          "internalType": "address",
          "name": "sender",
          "type": "address"
        },
        {
          "indexed": false,
          "internalType": "uint256",
          "name": "donationAmount",
          "type": "uint256"
        }
      ],
      "name": "DonationTiped",
      "type": "event"
    },
    {
      "inputs": [
        {
          "internalType": "uint256",
          "name": "_id",
          "type": "uint256"
        }
      ],
      "name": "addDonation",
      "outputs": [],
      "stateMutability": "payable",
      "type": "function"
    },
    {
      "inputs": [
        {
          "internalType": "uint256",
          "name": "_amountInUsd",
          "type": "uint256"
        }
      ],
      "name": "convertEthUsd",
      "outputs": [
        {
          "internalType": "uint256",
          "name": "",
          "type": "uint256"
        }
      ],
      "stateMutability": "view",
      "type": "function"
    },
    {
      "inputs": [],
      "name": "donationCount",
      "outputs": [
        {
          "internalType": "uint256",
          "name": "",
          "type": "uint256"
        }
      ],
      "stateMutability": "view",
      "type": "function"
    },
    {
      "inputs": [
        {
          "internalType": "uint256",
          "name": "",
          "type": "uint256"
        },
        {
          "internalType": "uint256",
          "name": "",
          "type": "uint256"
        }
      ],
      "name": "doners",
      "outputs": [
        {
          "internalType": "address",
          "name": "",
          "type": "address"
        }
      ],
      "stateMutability": "view",
      "type": "function"
    },
    {
      "inputs": [],
      "name": "donersCount",
      "outputs": [
        {
          "internalType": "uint256",
          "name": "",
          "type": "uint256"
        }
      ],
      "stateMutability": "view",
      "type": "function"
    },
    {
      "inputs": [],
      "name": "getEthUsd",
      "outputs": [
        {
          "internalType": "uint256",
          "name": "",
          "type": "uint256"
        }
      ],
      "stateMutability": "view",
      "type": "function"
    },
    {
      "inputs": [],
      "name": "getLatestPrice",
      "outputs": [
        {
          "internalType": "int256",
          "name": "",
          "type": "int256"
        }
      ],
      "stateMutability": "view",
      "type": "function"
    },
    {
      "inputs": [
        {
          "internalType": "uint256",
          "name": "",
          "type": "uint256"
        }
      ],
      "name": "idToDonationItem",
      "outputs": [
        {
          "internalType": "uint256",
          "name": "id",
          "type": "uint256"
        },
        {
          "internalType": "address payable",
          "name": "owner",
          "type": "address"
        },
        {
          "internalType": "uint256",
          "name": "donationAmount",
          "type": "uint256"
        },
        {
          "internalType": "uint256",
          "name": "startDate",
          "type": "uint256"
        },
        {
          "internalType": "uint256",
          "name": "endDate",
          "type": "uint256"
        },
        {
          "internalType": "uint256",
          "name": "targetPrice",
          "type": "uint256"
        },
        {
          "internalType": "string",
          "name": "category",
          "type": "string"
        },
        {
          "internalType": "string",
          "name": "title",
          "type": "string"
        },
        {
          "internalType": "string",
          "name": "hash",
          "type": "string"
        },
        {
          "internalType": "string",
          "name": "description",
          "type": "string"
        },
        {
          "internalType": "bool",
          "name": "completed",
          "type": "bool"
        }
      ],
      "stateMutability": "view",
      "type": "function"
    },
    {
      "inputs": [
        {
          "internalType": "string",
          "name": "_imageHash",
          "type": "string"
        },
        {
          "internalType": "string",
          "name": "_description",
          "type": "string"
        },
        {
          "internalType": "uint256",
          "name": "_endDate",
          "type": "uint256"
        },
        {
          "internalType": "string",
          "name": "_category",
          "type": "string"
        },
        {
          "internalType": "string",
          "name": "_title",
          "type": "string"
        },
        {
          "internalType": "uint256",
          "name": "_targetPrice",
          "type": "uint256"
        }
      ],
      "name": "uploadDonation",
      "outputs": [],
      "stateMutability": "nonpayable",
      "type": "function"
    }
  ],
  "bytecode": "0x60806040526000600355600060045534801561001a57600080fd5b50600080546001600160a01b031916739326bfa02add2366b30bacb125260af641031331179055610f43806100506000396000f3fe6080604052600436106100865760003560e01c80637d7ecb04116100595780637d7ecb041461015a5780638e15f4731461017c5780639534b3bf14610191578063bb27e0ce146101b1578063d8251a14146101c657600080fd5b80632abfab4d1461008b5780633f27607d146100b457806343ae959c146100eb578063568fefbf14610101575b600080fd5b34801561009757600080fd5b506100a160045481565b6040519081526020015b60405180910390f35b3480156100c057600080fd5b506100d46100cf366004610c90565b6101d9565b6040516100ab9b9a99989796959493929190610d9a565b3480156100f757600080fd5b506100a160035481565b34801561010d57600080fd5b5061014261011c366004610ca8565b60026020908152600092835260408084209091529082529020546001600160a01b031681565b6040516001600160a01b0390911681526020016100ab565b34801561016657600080fd5b5061017a610175366004610bd6565b61045e565b005b34801561018857600080fd5b506100a1610606565b34801561019d57600080fd5b506100a16101ac366004610c90565b6106ec565b3480156101bd57600080fd5b506100a161071b565b61017a6101d4366004610c90565b6107ad565b600160208190526000918252604090912080549181015460028201546003830154600484015460058501546006860180546001600160a01b039096169694959394929391929161022890610e8b565b80601f016020809104026020016040519081016040528092919081815260200182805461025490610e8b565b80156102a15780601f10610276576101008083540402835291602001916102a1565b820191906000526020600020905b81548152906001019060200180831161028457829003601f168201915b5050505050908060070180546102b690610e8b565b80601f01602080910402602001604051908101604052809291908181526020018280546102e290610e8b565b801561032f5780601f106103045761010080835404028352916020019161032f565b820191906000526020600020905b81548152906001019060200180831161031257829003601f168201915b50505050509080600801805461034490610e8b565b80601f016020809104026020016040519081016040528092919081815260200182805461037090610e8b565b80156103bd5780601f10610392576101008083540402835291602001916103bd565b820191906000526020600020905b8154815290600101906020018083116103a057829003601f168201915b5050505050908060090180546103d290610e8b565b80601f01602080910402602001604051908101604052809291908181526020018280546103fe90610e8b565b801561044b5780601f106104205761010080835404028352916020019161044b565b820191906000526020600020905b81548152906001019060200180831161042e57829003601f168201915b505050600a909301549192505060ff168b565b60008651116104ad5760405162461bcd60e51b8152602060048201526016602482015275125b5859d94812185cda081a5cc81c995c5d5a5c995960521b60448201526064015b60405180910390fd5b60008551116104ce5760405162461bcd60e51b81526004016104a490610d63565b60008351116104ef5760405162461bcd60e51b81526004016104a490610d63565b60008251116105105760405162461bcd60e51b81526004016104a490610d63565b3361051a57600080fd5b6004805490600061052a83610ec6565b9091555050600480546000908152600160208181526040808420600280820186905593810180546001600160a01b0319908116331790915586548652938352818520600380548752908452919094208054909316909255429183019190915591810186905560058101839055845190916105ab916006840191870190610a20565b5082516105c19060078301906020860190610a20565b50600454815586516105dc90600883019060208a0190610a20565b5085516105f29060098301906020890190610a20565b50600a01805460ff19169055505050505050565b60008060008060008060008054906101000a90046001600160a01b03166001600160a01b031663feaf968c6040518163ffffffff1660e01b815260040160a06040518083038186803b15801561065b57600080fd5b505afa15801561066f573d6000803e3d6000fd5b505050506040513d601f19601f820116820180604052508101906106939190610cc9565b94509450945094509450600082116106e25760405162461bcd60e51b8152602060048201526012602482015271526f756e64206e6f7420636f6d706c65746560701b60448201526064016104a4565b5091949350505050565b6000806106f761071b565b90506107148161070e85662386f26fc100006109b2565b906109be565b9392505050565b6000805460408051633fabe5a360e21b8152905183926001600160a01b03169163feaf968c9160048083019260a0929190829003018186803b15801561076057600080fd5b505afa158015610774573d6000803e3d6000fd5b505050506040513d601f19601f820116820180604052508101906107989190610cc9565b5050509150506107a7816109ca565b91505090565b6000811180156107bf57506004548111155b6107c857600080fd5b6000818152600160205260409020600a81015460ff16156107e857600080fd5b8060050154816002015411156107fd57600080fd5b806005015481600201541061081c57600a8101805460ff191660011790555b60018101546040516001600160a01b039091169081903480156108fc02916000818181858888f19350505050158015610859573d6000803e3d6000fd5b5034826002015461086a9190610e34565b60028301556003805490600061087f83610ec6565b90915550508154600090815260026020818152604080842060038054865290835281852080546001600160a01b0319908116331790915588865260019384905291909420865481558287015492810180549092166001600160a01b0393909316929092179055848201549181019190915581840154918101919091556004808401549082015560058084015490820155600680840180548593928301919061092690610e8b565b610931929190610aa0565b50600782018160070190805461094690610e8b565b610951929190610aa0565b50600882018160080190805461096690610e8b565b610971929190610aa0565b50600982018160090190805461098690610e8b565b610991929190610aa0565b50600a918201549101805460ff191660ff9092161515919091179055505050565b60006107148284610e6c565b60006107148284610e4c565b600080821215610a1c5760405162461bcd60e51b815260206004820181905260248201527f53616665436173743a2076616c7565206d75737420626520706f73697469766560448201526064016104a4565b5090565b828054610a2c90610e8b565b90600052602060002090601f016020900481019282610a4e5760008555610a94565b82601f10610a6757805160ff1916838001178555610a94565b82800160010185558215610a94579182015b82811115610a94578251825591602001919060010190610a79565b50610a1c929150610b1b565b828054610aac90610e8b565b90600052602060002090601f016020900481019282610ace5760008555610a94565b82601f10610adf5780548555610a94565b82800160010185558215610a9457600052602060002091601f016020900482015b82811115610a94578254825591600101919060010190610b00565b5b80821115610a1c5760008155600101610b1c565b600082601f830112610b40578081fd5b813567ffffffffffffffff80821115610b5b57610b5b610ef7565b604051601f8301601f19908116603f01168101908282118183101715610b8357610b83610ef7565b81604052838152866020858801011115610b9b578485fd5b8360208701602083013792830160200193909352509392505050565b805169ffffffffffffffffffff81168114610bd157600080fd5b919050565b60008060008060008060c08789031215610bee578182fd5b863567ffffffffffffffff80821115610c05578384fd5b610c118a838b01610b30565b97506020890135915080821115610c26578384fd5b610c328a838b01610b30565b9650604089013595506060890135915080821115610c4e578384fd5b610c5a8a838b01610b30565b94506080890135915080821115610c6f578384fd5b50610c7c89828a01610b30565b92505060a087013590509295509295509295565b600060208284031215610ca1578081fd5b5035919050565b60008060408385031215610cba578182fd5b50508035926020909101359150565b600080600080600060a08688031215610ce0578081fd5b610ce986610bb7565b9450602086015193506040860151925060608601519150610d0c60808701610bb7565b90509295509295909350565b60008151808452815b81811015610d3d57602081850181015186830182015201610d21565b81811115610d4e5782602083870101525b50601f01601f19169290920160200192915050565b6020808252601d908201527f496d616765206465736372697074696f6e206973207265717569726564000000604082015260600190565b60006101608d835260018060a01b038d1660208401528b60408401528a60608401528960808401528860a08401528060c0840152610dda81840189610d18565b905082810360e0840152610dee8188610d18565b9050828103610100840152610e038187610d18565b9050828103610120840152610e188186610d18565b9150508215156101408301529c9b505050505050505050505050565b60008219821115610e4757610e47610ee1565b500190565b600082610e6757634e487b7160e01b81526012600452602481fd5b500490565b6000816000190483118215151615610e8657610e86610ee1565b500290565b600181811c90821680610e9f57607f821691505b60208210811415610ec057634e487b7160e01b600052602260045260246000fd5b50919050565b6000600019821415610eda57610eda610ee1565b5060010190565b634e487b7160e01b600052601160045260246000fd5b634e487b7160e01b600052604160045260246000fdfea264697066735822122060bc5d395fac36e66b126fa4852376d9aade63d6e7ab965551164a3b01b1b75264736f6c63430008040033",
  "linkReferences": {},
  "deployedLinkReferences": {}
}