{
  "_format": "hh-sol-artifact-1",
  "contractName": "Schain",
  "sourceName": "contracts/Schain.sol",
  "abi": [
    {
      "inputs": [],
      "stateMutability": "nonpayable",
      "type": "constructor"
    },
    {
      "anonymous": false,
      "inputs": [
        {
          "indexed": true,
          "internalType": "uint256",
          "name": "id",
          "type": "uint256"
        },
        {
          "indexed": false,
          "internalType": "address",
          "name": "owner",
          "type": "address"
        },
        {
          "indexed": false,
          "internalType": "string",
          "name": "product",
          "type": "string"
        },
        {
          "indexed": false,
          "internalType": "uint256",
          "name": "quantity",
          "type": "uint256"
        },
        {
          "indexed": false,
          "internalType": "uint256",
          "name": "orderdate",
          "type": "uint256"
        },
        {
          "indexed": false,
          "internalType": "uint256",
          "name": "price",
          "type": "uint256"
        },
        {
          "indexed": false,
          "internalType": "string",
          "name": "addressLine",
          "type": "string"
        },
        {
          "indexed": false,
          "internalType": "string",
          "name": "contact",
          "type": "string"
        },
        {
          "indexed": false,
          "internalType": "string",
          "name": "city",
          "type": "string"
        },
        {
          "indexed": false,
          "internalType": "string",
          "name": "review",
          "type": "string"
        },
        {
          "indexed": false,
          "internalType": "string",
          "name": "zipcode",
          "type": "string"
        },
        {
          "indexed": false,
          "internalType": "string",
          "name": "state",
          "type": "string"
        },
        {
          "indexed": false,
          "internalType": "uint256",
          "name": "recievedate",
          "type": "uint256"
        },
        {
          "indexed": false,
          "internalType": "uint256",
          "name": "confirmdate",
          "type": "uint256"
        },
        {
          "indexed": false,
          "internalType": "uint256",
          "name": "producedate",
          "type": "uint256"
        },
        {
          "indexed": false,
          "internalType": "uint256",
          "name": "testdate",
          "type": "uint256"
        },
        {
          "indexed": false,
          "internalType": "uint256",
          "name": "transportdate",
          "type": "uint256"
        },
        {
          "indexed": false,
          "internalType": "bool",
          "name": "pending",
          "type": "bool"
        },
        {
          "indexed": false,
          "internalType": "bool",
          "name": "returned",
          "type": "bool"
        },
        {
          "indexed": false,
          "internalType": "bool",
          "name": "confirmed",
          "type": "bool"
        },
        {
          "indexed": false,
          "internalType": "bool",
          "name": "produced",
          "type": "bool"
        },
        {
          "indexed": false,
          "internalType": "bool",
          "name": "tested",
          "type": "bool"
        },
        {
          "indexed": false,
          "internalType": "bool",
          "name": "transported",
          "type": "bool"
        },
        {
          "indexed": false,
          "internalType": "bool",
          "name": "recieved",
          "type": "bool"
        }
      ],
      "name": "AddOrder",
      "type": "event"
    },
    {
      "anonymous": false,
      "inputs": [
        {
          "indexed": false,
          "internalType": "string",
          "name": "role",
          "type": "string"
        },
        {
          "indexed": false,
          "internalType": "address",
          "name": "roleaddress",
          "type": "address"
        }
      ],
      "name": "RoleAdded",
      "type": "event"
    },
    {
      "inputs": [
        {
          "internalType": "string",
          "name": "_product",
          "type": "string"
        },
        {
          "internalType": "uint256",
          "name": "_quantity",
          "type": "uint256"
        },
        {
          "internalType": "string",
          "name": "_addressline",
          "type": "string"
        },
        {
          "internalType": "string",
          "name": "_contact",
          "type": "string"
        },
        {
          "internalType": "string",
          "name": "_city",
          "type": "string"
        },
        {
          "internalType": "string",
          "name": "_zipcode",
          "type": "string"
        },
        {
          "internalType": "string",
          "name": "_state",
          "type": "string"
        }
      ],
      "name": "addOrderItem",
      "outputs": [],
      "stateMutability": "payable",
      "type": "function"
    },
    {
      "inputs": [
        {
          "internalType": "string",
          "name": "_name",
          "type": "string"
        },
        {
          "internalType": "uint256",
          "name": "_price",
          "type": "uint256"
        },
        {
          "internalType": "string",
          "name": "_imageHash",
          "type": "string"
        },
        {
          "internalType": "string",
          "name": "_category",
          "type": "string"
        },
        {
          "internalType": "uint256",
          "name": "_manufactureDate",
          "type": "uint256"
        },
        {
          "internalType": "uint256",
          "name": "_expiryDate",
          "type": "uint256"
        }
      ],
      "name": "addProduct",
      "outputs": [],
      "stateMutability": "payable",
      "type": "function"
    },
    {
      "inputs": [
        {
          "internalType": "uint256",
          "name": "_id",
          "type": "uint256"
        },
        {
          "internalType": "string",
          "name": "_review",
          "type": "string"
        }
      ],
      "name": "addReveiw",
      "outputs": [],
      "stateMutability": "nonpayable",
      "type": "function"
    },
    {
      "inputs": [
        {
          "internalType": "string",
          "name": "_role",
          "type": "string"
        },
        {
          "internalType": "address",
          "name": "_roleaddress",
          "type": "address"
        }
      ],
      "name": "addRole",
      "outputs": [],
      "stateMutability": "payable",
      "type": "function"
    },
    {
      "inputs": [
        {
          "internalType": "uint256",
          "name": "_id",
          "type": "uint256"
        },
        {
          "internalType": "string",
          "name": "_role",
          "type": "string"
        }
      ],
      "name": "confrimOrder",
      "outputs": [],
      "stateMutability": "nonpayable",
      "type": "function"
    },
    {
      "inputs": [
        {
          "internalType": "uint256",
          "name": "_amountInUsd",
          "type": "uint256"
        }
      ],
      "name": "convertEthUsd",
      "outputs": [
        {
          "internalType": "uint256",
          "name": "",
          "type": "uint256"
        }
      ],
      "stateMutability": "view",
      "type": "function"
    },
    {
      "inputs": [],
      "name": "fetchCustomers",
      "outputs": [
        {
          "components": [
            {
              "internalType": "uint256",
              "name": "id",
              "type": "uint256"
            },
            {
              "internalType": "address",
              "name": "owner",
              "type": "address"
            },
            {
              "internalType": "string",
              "name": "product",
              "type": "string"
            },
            {
              "internalType": "uint256",
              "name": "quantity",
              "type": "uint256"
            },
            {
              "internalType": "uint256",
              "name": "orderdate",
              "type": "uint256"
            },
            {
              "internalType": "uint256",
              "name": "price",
              "type": "uint256"
            },
            {
              "internalType": "string",
              "name": "addressLine",
              "type": "string"
            },
            {
              "internalType": "string",
              "name": "contact",
              "type": "string"
            },
            {
              "internalType": "string",
              "name": "city",
              "type": "string"
            },
            {
              "internalType": "string",
              "name": "review",
              "type": "string"
            },
            {
              "internalType": "string",
              "name": "zipcode",
              "type": "string"
            },
            {
              "internalType": "string",
              "name": "state",
              "type": "string"
            },
            {
              "internalType": "uint256",
              "name": "recievedate",
              "type": "uint256"
            },
            {
              "internalType": "uint256",
              "name": "confirmdate",
              "type": "uint256"
            },
            {
              "internalType": "uint256",
              "name": "producedate",
              "type": "uint256"
            },
            {
              "internalType": "uint256",
              "name": "testdate",
              "type": "uint256"
            },
            {
              "internalType": "uint256",
              "name": "transportdate",
              "type": "uint256"
            },
            {
              "internalType": "bool",
              "name": "pending",
              "type": "bool"
            },
            {
              "internalType": "bool",
              "name": "returned",
              "type": "bool"
            },
            {
              "internalType": "bool",
              "name": "confirmed",
              "type": "bool"
            },
            {
              "internalType": "bool",
              "name": "produced",
              "type": "bool"
            },
            {
              "internalType": "bool",
              "name": "tested",
              "type": "bool"
            },
            {
              "internalType": "bool",
              "name": "transported",
              "type": "bool"
            },
            {
              "internalType": "bool",
              "name": "recieved",
              "type": "bool"
            }
          ],
          "internalType": "struct Schain.OrderItem[]",
          "name": "",
          "type": "tuple[]"
        }
      ],
      "stateMutability": "view",
      "type": "function"
    },
    {
      "inputs": [],
      "name": "fetchMyOrders",
      "outputs": [
        {
          "components": [
            {
              "internalType": "uint256",
              "name": "id",
              "type": "uint256"
            },
            {
              "internalType": "address",
              "name": "owner",
              "type": "address"
            },
            {
              "internalType": "string",
              "name": "product",
              "type": "string"
            },
            {
              "internalType": "uint256",
              "name": "quantity",
              "type": "uint256"
            },
            {
              "internalType": "uint256",
              "name": "orderdate",
              "type": "uint256"
            },
            {
              "internalType": "uint256",
              "name": "price",
              "type": "uint256"
            },
            {
              "internalType": "string",
              "name": "addressLine",
              "type": "string"
            },
            {
              "internalType": "string",
              "name": "contact",
              "type": "string"
            },
            {
              "internalType": "string",
              "name": "city",
              "type": "string"
            },
            {
              "internalType": "string",
              "name": "review",
              "type": "string"
            },
            {
              "internalType": "string",
              "name": "zipcode",
              "type": "string"
            },
            {
              "internalType": "string",
              "name": "state",
              "type": "string"
            },
            {
              "internalType": "uint256",
              "name": "recievedate",
              "type": "uint256"
            },
            {
              "internalType": "uint256",
              "name": "confirmdate",
              "type": "uint256"
            },
            {
              "internalType": "uint256",
              "name": "producedate",
              "type": "uint256"
            },
            {
              "internalType": "uint256",
              "name": "testdate",
              "type": "uint256"
            },
            {
              "internalType": "uint256",
              "name": "transportdate",
              "type": "uint256"
            },
            {
              "internalType": "bool",
              "name": "pending",
              "type": "bool"
            },
            {
              "internalType": "bool",
              "name": "returned",
              "type": "bool"
            },
            {
              "internalType": "bool",
              "name": "confirmed",
              "type": "bool"
            },
            {
              "internalType": "bool",
              "name": "produced",
              "type": "bool"
            },
            {
              "internalType": "bool",
              "name": "tested",
              "type": "bool"
            },
            {
              "internalType": "bool",
              "name": "transported",
              "type": "bool"
            },
            {
              "internalType": "bool",
              "name": "recieved",
              "type": "bool"
            }
          ],
          "internalType": "struct Schain.OrderItem[]",
          "name": "",
          "type": "tuple[]"
        }
      ],
      "stateMutability": "view",
      "type": "function"
    },
    {
      "inputs": [],
      "name": "fetchOrderItems",
      "outputs": [
        {
          "components": [
            {
              "internalType": "uint256",
              "name": "id",
              "type": "uint256"
            },
            {
              "internalType": "address",
              "name": "owner",
              "type": "address"
            },
            {
              "internalType": "string",
              "name": "product",
              "type": "string"
            },
            {
              "internalType": "uint256",
              "name": "quantity",
              "type": "uint256"
            },
            {
              "internalType": "uint256",
              "name": "orderdate",
              "type": "uint256"
            },
            {
              "internalType": "uint256",
              "name": "price",
              "type": "uint256"
            },
            {
              "internalType": "string",
              "name": "addressLine",
              "type": "string"
            },
            {
              "internalType": "string",
              "name": "contact",
              "type": "string"
            },
            {
              "internalType": "string",
              "name": "city",
              "type": "string"
            },
            {
              "internalType": "string",
              "name": "review",
              "type": "string"
            },
            {
              "internalType": "string",
              "name": "zipcode",
              "type": "string"
            },
            {
              "internalType": "string",
              "name": "state",
              "type": "string"
            },
            {
              "internalType": "uint256",
              "name": "recievedate",
              "type": "uint256"
            },
            {
              "internalType": "uint256",
              "name": "confirmdate",
              "type": "uint256"
            },
            {
              "internalType": "uint256",
              "name": "producedate",
              "type": "uint256"
            },
            {
              "internalType": "uint256",
              "name": "testdate",
              "type": "uint256"
            },
            {
              "internalType": "uint256",
              "name": "transportdate",
              "type": "uint256"
            },
            {
              "internalType": "bool",
              "name": "pending",
              "type": "bool"
            },
            {
              "internalType": "bool",
              "name": "returned",
              "type": "bool"
            },
            {
              "internalType": "bool",
              "name": "confirmed",
              "type": "bool"
            },
            {
              "internalType": "bool",
              "name": "produced",
              "type": "bool"
            },
            {
              "internalType": "bool",
              "name": "tested",
              "type": "bool"
            },
            {
              "internalType": "bool",
              "name": "transported",
              "type": "bool"
            },
            {
              "internalType": "bool",
              "name": "recieved",
              "type": "bool"
            }
          ],
          "internalType": "struct Schain.OrderItem[]",
          "name": "",
          "type": "tuple[]"
        }
      ],
      "stateMutability": "view",
      "type": "function"
    },
    {
      "inputs": [],
      "name": "fetchOrdersConfirm",
      "outputs": [
        {
          "components": [
            {
              "internalType": "uint256",
              "name": "id",
              "type": "uint256"
            },
            {
              "internalType": "address",
              "name": "owner",
              "type": "address"
            },
            {
              "internalType": "string",
              "name": "product",
              "type": "string"
            },
            {
              "internalType": "uint256",
              "name": "quantity",
              "type": "uint256"
            },
            {
              "internalType": "uint256",
              "name": "orderdate",
              "type": "uint256"
            },
            {
              "internalType": "uint256",
              "name": "price",
              "type": "uint256"
            },
            {
              "internalType": "string",
              "name": "addressLine",
              "type": "string"
            },
            {
              "internalType": "string",
              "name": "contact",
              "type": "string"
            },
            {
              "internalType": "string",
              "name": "city",
              "type": "string"
            },
            {
              "internalType": "string",
              "name": "review",
              "type": "string"
            },
            {
              "internalType": "string",
              "name": "zipcode",
              "type": "string"
            },
            {
              "internalType": "string",
              "name": "state",
              "type": "string"
            },
            {
              "internalType": "uint256",
              "name": "recievedate",
              "type": "uint256"
            },
            {
              "internalType": "uint256",
              "name": "confirmdate",
              "type": "uint256"
            },
            {
              "internalType": "uint256",
              "name": "producedate",
              "type": "uint256"
            },
            {
              "internalType": "uint256",
              "name": "testdate",
              "type": "uint256"
            },
            {
              "internalType": "uint256",
              "name": "transportdate",
              "type": "uint256"
            },
            {
              "internalType": "bool",
              "name": "pending",
              "type": "bool"
            },
            {
              "internalType": "bool",
              "name": "returned",
              "type": "bool"
            },
            {
              "internalType": "bool",
              "name": "confirmed",
              "type": "bool"
            },
            {
              "internalType": "bool",
              "name": "produced",
              "type": "bool"
            },
            {
              "internalType": "bool",
              "name": "tested",
              "type": "bool"
            },
            {
              "internalType": "bool",
              "name": "transported",
              "type": "bool"
            },
            {
              "internalType": "bool",
              "name": "recieved",
              "type": "bool"
            }
          ],
          "internalType": "struct Schain.OrderItem[]",
          "name": "",
          "type": "tuple[]"
        }
      ],
      "stateMutability": "view",
      "type": "function"
    },
    {
      "inputs": [],
      "name": "fetchOrdersProduced",
      "outputs": [
        {
          "components": [
            {
              "internalType": "uint256",
              "name": "id",
              "type": "uint256"
            },
            {
              "internalType": "address",
              "name": "owner",
              "type": "address"
            },
            {
              "internalType": "string",
              "name": "product",
              "type": "string"
            },
            {
              "internalType": "uint256",
              "name": "quantity",
              "type": "uint256"
            },
            {
              "internalType": "uint256",
              "name": "orderdate",
              "type": "uint256"
            },
            {
              "internalType": "uint256",
              "name": "price",
              "type": "uint256"
            },
            {
              "internalType": "string",
              "name": "addressLine",
              "type": "string"
            },
            {
              "internalType": "string",
              "name": "contact",
              "type": "string"
            },
            {
              "internalType": "string",
              "name": "city",
              "type": "string"
            },
            {
              "internalType": "string",
              "name": "review",
              "type": "string"
            },
            {
              "internalType": "string",
              "name": "zipcode",
              "type": "string"
            },
            {
              "internalType": "string",
              "name": "state",
              "type": "string"
            },
            {
              "internalType": "uint256",
              "name": "recievedate",
              "type": "uint256"
            },
            {
              "internalType": "uint256",
              "name": "confirmdate",
              "type": "uint256"
            },
            {
              "internalType": "uint256",
              "name": "producedate",
              "type": "uint256"
            },
            {
              "internalType": "uint256",
              "name": "testdate",
              "type": "uint256"
            },
            {
              "internalType": "uint256",
              "name": "transportdate",
              "type": "uint256"
            },
            {
              "internalType": "bool",
              "name": "pending",
              "type": "bool"
            },
            {
              "internalType": "bool",
              "name": "returned",
              "type": "bool"
            },
            {
              "internalType": "bool",
              "name": "confirmed",
              "type": "bool"
            },
            {
              "internalType": "bool",
              "name": "produced",
              "type": "bool"
            },
            {
              "internalType": "bool",
              "name": "tested",
              "type": "bool"
            },
            {
              "internalType": "bool",
              "name": "transported",
              "type": "bool"
            },
            {
              "internalType": "bool",
              "name": "recieved",
              "type": "bool"
            }
          ],
          "internalType": "struct Schain.OrderItem[]",
          "name": "",
          "type": "tuple[]"
        }
      ],
      "stateMutability": "view",
      "type": "function"
    },
    {
      "inputs": [],
      "name": "fetchOrdersTested",
      "outputs": [
        {
          "components": [
            {
              "internalType": "uint256",
              "name": "id",
              "type": "uint256"
            },
            {
              "internalType": "address",
              "name": "owner",
              "type": "address"
            },
            {
              "internalType": "string",
              "name": "product",
              "type": "string"
            },
            {
              "internalType": "uint256",
              "name": "quantity",
              "type": "uint256"
            },
            {
              "internalType": "uint256",
              "name": "orderdate",
              "type": "uint256"
            },
            {
              "internalType": "uint256",
              "name": "price",
              "type": "uint256"
            },
            {
              "internalType": "string",
              "name": "addressLine",
              "type": "string"
            },
            {
              "internalType": "string",
              "name": "contact",
              "type": "string"
            },
            {
              "internalType": "string",
              "name": "city",
              "type": "string"
            },
            {
              "internalType": "string",
              "name": "review",
              "type": "string"
            },
            {
              "internalType": "string",
              "name": "zipcode",
              "type": "string"
            },
            {
              "internalType": "string",
              "name": "state",
              "type": "string"
            },
            {
              "internalType": "uint256",
              "name": "recievedate",
              "type": "uint256"
            },
            {
              "internalType": "uint256",
              "name": "confirmdate",
              "type": "uint256"
            },
            {
              "internalType": "uint256",
              "name": "producedate",
              "type": "uint256"
            },
            {
              "internalType": "uint256",
              "name": "testdate",
              "type": "uint256"
            },
            {
              "internalType": "uint256",
              "name": "transportdate",
              "type": "uint256"
            },
            {
              "internalType": "bool",
              "name": "pending",
              "type": "bool"
            },
            {
              "internalType": "bool",
              "name": "returned",
              "type": "bool"
            },
            {
              "internalType": "bool",
              "name": "confirmed",
              "type": "bool"
            },
            {
              "internalType": "bool",
              "name": "produced",
              "type": "bool"
            },
            {
              "internalType": "bool",
              "name": "tested",
              "type": "bool"
            },
            {
              "internalType": "bool",
              "name": "transported",
              "type": "bool"
            },
            {
              "internalType": "bool",
              "name": "recieved",
              "type": "bool"
            }
          ],
          "internalType": "struct Schain.OrderItem[]",
          "name": "",
          "type": "tuple[]"
        }
      ],
      "stateMutability": "view",
      "type": "function"
    },
    {
      "inputs": [],
      "name": "fetchOrdersTransported",
      "outputs": [
        {
          "components": [
            {
              "internalType": "uint256",
              "name": "id",
              "type": "uint256"
            },
            {
              "internalType": "address",
              "name": "owner",
              "type": "address"
            },
            {
              "internalType": "string",
              "name": "product",
              "type": "string"
            },
            {
              "internalType": "uint256",
              "name": "quantity",
              "type": "uint256"
            },
            {
              "internalType": "uint256",
              "name": "orderdate",
              "type": "uint256"
            },
            {
              "internalType": "uint256",
              "name": "price",
              "type": "uint256"
            },
            {
              "internalType": "string",
              "name": "addressLine",
              "type": "string"
            },
            {
              "internalType": "string",
              "name": "contact",
              "type": "string"
            },
            {
              "internalType": "string",
              "name": "city",
              "type": "string"
            },
            {
              "internalType": "string",
              "name": "review",
              "type": "string"
            },
            {
              "internalType": "string",
              "name": "zipcode",
              "type": "string"
            },
            {
              "internalType": "string",
              "name": "state",
              "type": "string"
            },
            {
              "internalType": "uint256",
              "name": "recievedate",
              "type": "uint256"
            },
            {
              "internalType": "uint256",
              "name": "confirmdate",
              "type": "uint256"
            },
            {
              "internalType": "uint256",
              "name": "producedate",
              "type": "uint256"
            },
            {
              "internalType": "uint256",
              "name": "testdate",
              "type": "uint256"
            },
            {
              "internalType": "uint256",
              "name": "transportdate",
              "type": "uint256"
            },
            {
              "internalType": "bool",
              "name": "pending",
              "type": "bool"
            },
            {
              "internalType": "bool",
              "name": "returned",
              "type": "bool"
            },
            {
              "internalType": "bool",
              "name": "confirmed",
              "type": "bool"
            },
            {
              "internalType": "bool",
              "name": "produced",
              "type": "bool"
            },
            {
              "internalType": "bool",
              "name": "tested",
              "type": "bool"
            },
            {
              "internalType": "bool",
              "name": "transported",
              "type": "bool"
            },
            {
              "internalType": "bool",
              "name": "recieved",
              "type": "bool"
            }
          ],
          "internalType": "struct Schain.OrderItem[]",
          "name": "",
          "type": "tuple[]"
        }
      ],
      "stateMutability": "view",
      "type": "function"
    },
    {
      "inputs": [],
      "name": "fetchProductItems",
      "outputs": [
        {
          "components": [
            {
              "internalType": "uint256",
              "name": "id",
              "type": "uint256"
            },
            {
              "internalType": "string",
              "name": "name",
              "type": "string"
            },
            {
              "internalType": "uint256",
              "name": "price",
              "type": "uint256"
            },
            {
              "internalType": "string",
              "name": "hash",
              "type": "string"
            },
            {
              "internalType": "string",
              "name": "category",
              "type": "string"
            },
            {
              "internalType": "uint256",
              "name": "manufactureDate",
              "type": "uint256"
            },
            {
              "internalType": "uint256",
              "name": "expiryDate",
              "type": "uint256"
            }
          ],
          "internalType": "struct Schain.ProductItem[]",
          "name": "",
          "type": "tuple[]"
        }
      ],
      "stateMutability": "view",
      "type": "function"
    },
    {
      "inputs": [],
      "name": "getEthUsd",
      "outputs": [
        {
          "internalType": "uint256",
          "name": "",
          "type": "uint256"
        }
      ],
      "stateMutability": "view",
      "type": "function"
    },
    {
      "inputs": [
        {
          "internalType": "uint256",
          "name": "",
          "type": "uint256"
        }
      ],
      "name": "idToProductItem",
      "outputs": [
        {
          "internalType": "uint256",
          "name": "id",
          "type": "uint256"
        },
        {
          "internalType": "string",
          "name": "name",
          "type": "string"
        },
        {
          "internalType": "uint256",
          "name": "price",
          "type": "uint256"
        },
        {
          "internalType": "string",
          "name": "hash",
          "type": "string"
        },
        {
          "internalType": "string",
          "name": "category",
          "type": "string"
        },
        {
          "internalType": "uint256",
          "name": "manufactureDate",
          "type": "uint256"
        },
        {
          "internalType": "uint256",
          "name": "expiryDate",
          "type": "uint256"
        }
      ],
      "stateMutability": "view",
      "type": "function"
    },
    {
      "inputs": [],
      "name": "ordersCount",
      "outputs": [
        {
          "internalType": "uint256",
          "name": "",
          "type": "uint256"
        }
      ],
      "stateMutability": "view",
      "type": "function"
    },
    {
      "inputs": [
        {
          "internalType": "uint256",
          "name": "_id",
          "type": "uint256"
        },
        {
          "internalType": "string",
          "name": "_role",
          "type": "string"
        }
      ],
      "name": "produceOrder",
      "outputs": [],
      "stateMutability": "nonpayable",
      "type": "function"
    },
    {
      "inputs": [],
      "name": "productCount",
      "outputs": [
        {
          "internalType": "uint256",
          "name": "",
          "type": "uint256"
        }
      ],
      "stateMutability": "view",
      "type": "function"
    },
    {
      "inputs": [
        {
          "internalType": "uint256",
          "name": "_id",
          "type": "uint256"
        }
      ],
      "name": "receiveOrder",
      "outputs": [],
      "stateMutability": "nonpayable",
      "type": "function"
    },
    {
      "inputs": [
        {
          "internalType": "uint256",
          "name": "_id",
          "type": "uint256"
        }
      ],
      "name": "returnOrder",
      "outputs": [],
      "stateMutability": "nonpayable",
      "type": "function"
    },
    {
      "inputs": [
        {
          "internalType": "uint256",
          "name": "_id",
          "type": "uint256"
        },
        {
          "internalType": "string",
          "name": "_role",
          "type": "string"
        }
      ],
      "name": "testOrder",
      "outputs": [],
      "stateMutability": "nonpayable",
      "type": "function"
    },
    {
      "inputs": [
        {
          "internalType": "uint256",
          "name": "_id",
          "type": "uint256"
        },
        {
          "internalType": "string",
          "name": "_role",
          "type": "string"
        }
      ],
      "name": "transportOrder",
      "outputs": [],
      "stateMutability": "nonpayable",
      "type": "function"
    },
    {
      "inputs": [],
      "name": "usersCount",
      "outputs": [
        {
          "internalType": "uint256",
          "name": "",
          "type": "uint256"
        }
      ],
      "stateMutability": "view",
      "type": "function"
    },
    {
      "inputs": [
        {
          "internalType": "string",
          "name": "_role",
          "type": "string"
        },
        {
          "internalType": "address",
          "name": "_roleaddress",
          "type": "address"
        }
      ],
      "name": "validateRole",
      "outputs": [
        {
          "internalType": "bool",
          "name": "",
          "type": "bool"
        }
      ],
      "stateMutability": "view",
      "type": "function"
    }
  ],
  "bytecode": "0x6080604052600060045560006005556000600655600060075534801561002457600080fd5b50600880546001600160a01b0319908116331790915560008054909116739326bfa02add2366b30bacb125260af64103133117905561566080620000696000396000f3fe6080604052600436106101665760003560e01c80639534b3bf116100d1578063c8e45a6b1161008a578063e0f6ef8711610064578063e0f6ef87146103b9578063eaa44a42146103cf578063ec3364e4146103e4578063ff1151d91461041757600080fd5b8063c8e45a6b14610359578063d1e002fe14610379578063df7128851461039957600080fd5b80639534b3bf146102c757806397bab12f146102e75780639fe2a7f414610307578063b7113a6c1461031c578063bb27e0ce1461032f578063bbb033581461034457600080fd5b80633d644327116101235780633d644327146102365780636038821a1461024b5780636735b3a71461026b5780636ba13a821461027e578063780d27b1146102945780638683c612146102b457600080fd5b80630500418b1461016b5780630e55f29b14610196578063191b9351146101c65780631ca107fe146101db5780632775bbc0146101fd57806335daa73114610212575b600080fd5b34801561017757600080fd5b50610180610439565b60405161018d91906151bc565b60405180910390f35b3480156101a257600080fd5b506101b66101b1366004614ed8565b610aa7565b604051901515815260200161018d565b3480156101d257600080fd5b50610180610af7565b3480156101e757600080fd5b506101fb6101f63660046150e1565b611156565b005b34801561020957600080fd5b506101806114ca565b34801561021e57600080fd5b5061022860055481565b60405190815260200161018d565b34801561024257600080fd5b50610180611c71565b34801561025757600080fd5b506101fb6102663660046150e1565b61224b565b6101fb610279366004614ed8565b6122ef565b34801561028a57600080fd5b5061022860045481565b3480156102a057600080fd5b506101fb6102af3660046150c9565b612399565b6101fb6102c2366004614f32565b612633565b3480156102d357600080fd5b506102286102e23660046150c9565b612869565b3480156102f357600080fd5b506101fb6103023660046150c9565b612898565b34801561031357600080fd5b50610180612922565b6101fb61032a36600461502a565b6130d9565b34801561033b57600080fd5b50610228613245565b34801561035057600080fd5b506101806132d7565b34801561036557600080fd5b506101fb6103743660046150e1565b613aaa565b34801561038557600080fd5b506101fb6103943660046150e1565b613c39565b3480156103a557600080fd5b506101fb6103b43660046150e1565b613d8b565b3480156103c557600080fd5b5061022860075481565b3480156103db57600080fd5b50610180613edf565b3480156103f057600080fd5b506104046103ff3660046150c9565b6146a4565b60405161018d97969594939291906154c5565b34801561042357600080fd5b5061042c614877565b60405161018d91906153a0565b600554606090600080805b8381101561049f57336002600061045c846001615521565b81526020810191909152604001600020600101546001600160a01b0316141561048d5761048a600184615521565b92505b80610497816155e3565b915050610444565b506000826001600160401b038111156104c857634e487b7160e01b600052604160045260246000fd5b60405190808252806020026020018201604052801561050157816020015b6104ee614c57565b8152602001906001900390816104e65790505b50905060005b84811015610a9e57336002600061051f846001615521565b81526020810191909152604001600020600101546001600160a01b03161415610a8c57600061054f826001615521565b6000818152600260208181526040928390208351610300810185528154815260018201546001600160a01b03169281019290925291820180549495509193909284929084019161059e906155a8565b80601f01602080910402602001604051908101604052809291908181526020018280546105ca906155a8565b80156106175780601f106105ec57610100808354040283529160200191610617565b820191906000526020600020905b8154815290600101906020018083116105fa57829003601f168201915b5050505050815260200160038201548152602001600482015481526020016005820154815260200160068201805461064e906155a8565b80601f016020809104026020016040519081016040528092919081815260200182805461067a906155a8565b80156106c75780601f1061069c576101008083540402835291602001916106c7565b820191906000526020600020905b8154815290600101906020018083116106aa57829003601f168201915b505050505081526020016007820180546106e0906155a8565b80601f016020809104026020016040519081016040528092919081815260200182805461070c906155a8565b80156107595780601f1061072e57610100808354040283529160200191610759565b820191906000526020600020905b81548152906001019060200180831161073c57829003601f168201915b50505050508152602001600882018054610772906155a8565b80601f016020809104026020016040519081016040528092919081815260200182805461079e906155a8565b80156107eb5780601f106107c0576101008083540402835291602001916107eb565b820191906000526020600020905b8154815290600101906020018083116107ce57829003601f168201915b50505050508152602001600982018054610804906155a8565b80601f0160208091040260200160405190810160405280929190818152602001828054610830906155a8565b801561087d5780601f106108525761010080835404028352916020019161087d565b820191906000526020600020905b81548152906001019060200180831161086057829003601f168201915b50505050508152602001600a82018054610896906155a8565b80601f01602080910402602001604051908101604052809291908181526020018280546108c2906155a8565b801561090f5780601f106108e45761010080835404028352916020019161090f565b820191906000526020600020905b8154815290600101906020018083116108f257829003601f168201915b50505050508152602001600b82018054610928906155a8565b80601f0160208091040260200160405190810160405280929190818152602001828054610954906155a8565b80156109a15780601f10610976576101008083540402835291602001916109a1565b820191906000526020600020905b81548152906001019060200180831161098457829003601f168201915b5050509183525050600c8201546020820152600d8201546040820152600e8201546060820152600f8201546080820152601082015460a082015260119091015460ff808216151560c08401526101008083048216151560e085015262010000830482161515908401526301000000820481161515610120840152600160201b820481161515610140840152600160281b820481161515610160840152600160301b909104161515610180909101528451859087908110610a7157634e487b7160e01b600052603260045260246000fd5b6020908102919091010152610a87600186615521565b945050505b80610a96816155e3565b915050610507565b50949350505050565b6000816001600160a01b0316600184604051610ac391906151a0565b908152604051908190036020019020600201546001600160a01b03161415610aed57506001610af1565b5060005b92915050565b600554606090600080805b83811015610b2957610b15600184615521565b925080610b21816155e3565b915050610b02565b506000826001600160401b03811115610b5257634e487b7160e01b600052604160045260246000fd5b604051908082528060200260200182016040528015610b8b57816020015b610b78614c57565b815260200190600190039081610b705790505b50905060005b84811015610a9e5760026000610ba8836001615521565b8152602081019190915260400160009081206001908101546001600160a01b031691600291610bd8908590615521565b81526020810191909152604001600020600101546001600160a01b031614611144576000610c07826001615521565b6000818152600260208181526040928390208351610300810185528154815260018201546001600160a01b031692810192909252918201805494955091939092849290840191610c56906155a8565b80601f0160208091040260200160405190810160405280929190818152602001828054610c82906155a8565b8015610ccf5780601f10610ca457610100808354040283529160200191610ccf565b820191906000526020600020905b815481529060010190602001808311610cb257829003601f168201915b50505050508152602001600382015481526020016004820154815260200160058201548152602001600682018054610d06906155a8565b80601f0160208091040260200160405190810160405280929190818152602001828054610d32906155a8565b8015610d7f5780601f10610d5457610100808354040283529160200191610d7f565b820191906000526020600020905b815481529060010190602001808311610d6257829003601f168201915b50505050508152602001600782018054610d98906155a8565b80601f0160208091040260200160405190810160405280929190818152602001828054610dc4906155a8565b8015610e115780601f10610de657610100808354040283529160200191610e11565b820191906000526020600020905b815481529060010190602001808311610df457829003601f168201915b50505050508152602001600882018054610e2a906155a8565b80601f0160208091040260200160405190810160405280929190818152602001828054610e56906155a8565b8015610ea35780601f10610e7857610100808354040283529160200191610ea3565b820191906000526020600020905b815481529060010190602001808311610e8657829003601f168201915b50505050508152602001600982018054610ebc906155a8565b80601f0160208091040260200160405190810160405280929190818152602001828054610ee8906155a8565b8015610f355780601f10610f0a57610100808354040283529160200191610f35565b820191906000526020600020905b815481529060010190602001808311610f1857829003601f168201915b50505050508152602001600a82018054610f4e906155a8565b80601f0160208091040260200160405190810160405280929190818152602001828054610f7a906155a8565b8015610fc75780601f10610f9c57610100808354040283529160200191610fc7565b820191906000526020600020905b815481529060010190602001808311610faa57829003601f168201915b50505050508152602001600b82018054610fe0906155a8565b80601f016020809104026020016040519081016040528092919081815260200182805461100c906155a8565b80156110595780601f1061102e57610100808354040283529160200191611059565b820191906000526020600020905b81548152906001019060200180831161103c57829003601f168201915b5050509183525050600c8201546020820152600d8201546040820152600e8201546060820152600f8201546080820152601082015460a082015260119091015460ff808216151560c08401526101008083048216151560e085015262010000830482161515908401526301000000820481161515610120840152600160201b820481161515610140840152600160281b820481161515610160840152600160301b90910416151561018090910152845185908790811061112957634e487b7160e01b600052603260045260246000fd5b602090810291909101015261113f600186615521565b945050505b8061114e816155e3565b915050610b91565b60008211801561116857506005548211155b61118d5760405162461bcd60e51b815260040161118490615499565b60405180910390fd5b336001600160a01b03166001826040516111a791906151a0565b908152604051908190036020019020600201546001600160a01b0316146112245760405162461bcd60e51b815260206004820152602b60248201527f596f7520646f6e742068617665207065726d697373696f6e20746f207472616e60448201526a39b837b93a1037b93232b960a91b6064820152608401611184565b60008281526002602052604090206011810154600160281b900460ff161561124b57600080fd5b60118101805465ff00000000001916600160281b17905542601082015560008381526002602081905260409091208254815560018381015490820180546001600160a01b0319166001600160a01b0390921691909117905581830180548493830191906112b7906155a8565b6112c2929190614d23565b5060038201548160030155600482015481600401556005820154816005015560068201816006019080546112f5906155a8565b611300929190614d23565b506007820181600701908054611315906155a8565b611320929190614d23565b506008820181600801908054611335906155a8565b611340929190614d23565b506009820181600901908054611355906155a8565b611360929190614d23565b50600a820181600a01908054611375906155a8565b611380929190614d23565b50600b820181600b01908054611395906155a8565b6113a0929190614d23565b50600c8281015490820155600d8083015490820155600e8083015490820155600f8083015490820155601080830154908201556011918201805492909101805460ff938416151560ff19821681178355835461010090819004861615150261ff001990911661ffff19909216919091171780825582546201000090819004851615150262ff0000198216811783558354630100000090819004861615150263ff0000001990911663ffff00001990921691909117178082558254600160201b90819004851615150264ff00000000198216811783558354600160281b90819004861615150265ff00000000001990911665ffff000000001990921691909117178082559154600160301b90819004909316151590920266ff00000000000019909116179055505050565b600554606090600080805b838110156115d157600260006114ec836001615521565b815260208101919091526040016000206011015462010000900460ff16158015611540575060026000611520836001615521565b81526020810191909152604001600020601101546301000000900460ff16155b8015611576575060026000611556836001615521565b8152602081019190915260400160002060110154600160201b900460ff16155b80156115ac57506002600061158c836001615521565b8152602081019190915260400160002060110154600160281b900460ff16155b156115bf576115bc600184615521565b92505b806115c9816155e3565b9150506114d5565b506000826001600160401b038111156115fa57634e487b7160e01b600052604160045260246000fd5b60405190808252806020026020018201604052801561163357816020015b611620614c57565b8152602001906001900390816116185790505b50905060005b84811015610a9e5760026000611650836001615521565b815260208101919091526040016000206011015462010000900460ff161580156116a4575060026000611684836001615521565b81526020810191909152604001600020601101546301000000900460ff16155b80156116da5750600260006116ba836001615521565b8152602081019190915260400160002060110154600160201b900460ff16155b80156117105750600260006116f0836001615521565b8152602081019190915260400160002060110154600160281b900460ff16155b15611c5f576000611722826001615521565b6000818152600260208181526040928390208351610300810185528154815260018201546001600160a01b031692810192909252918201805494955091939092849290840191611771906155a8565b80601f016020809104026020016040519081016040528092919081815260200182805461179d906155a8565b80156117ea5780601f106117bf576101008083540402835291602001916117ea565b820191906000526020600020905b8154815290600101906020018083116117cd57829003601f168201915b50505050508152602001600382015481526020016004820154815260200160058201548152602001600682018054611821906155a8565b80601f016020809104026020016040519081016040528092919081815260200182805461184d906155a8565b801561189a5780601f1061186f5761010080835404028352916020019161189a565b820191906000526020600020905b81548152906001019060200180831161187d57829003601f168201915b505050505081526020016007820180546118b3906155a8565b80601f01602080910402602001604051908101604052809291908181526020018280546118df906155a8565b801561192c5780601f106119015761010080835404028352916020019161192c565b820191906000526020600020905b81548152906001019060200180831161190f57829003601f168201915b50505050508152602001600882018054611945906155a8565b80601f0160208091040260200160405190810160405280929190818152602001828054611971906155a8565b80156119be5780601f10611993576101008083540402835291602001916119be565b820191906000526020600020905b8154815290600101906020018083116119a157829003601f168201915b505050505081526020016009820180546119d7906155a8565b80601f0160208091040260200160405190810160405280929190818152602001828054611a03906155a8565b8015611a505780601f10611a2557610100808354040283529160200191611a50565b820191906000526020600020905b815481529060010190602001808311611a3357829003601f168201915b50505050508152602001600a82018054611a69906155a8565b80601f0160208091040260200160405190810160405280929190818152602001828054611a95906155a8565b8015611ae25780601f10611ab757610100808354040283529160200191611ae2565b820191906000526020600020905b815481529060010190602001808311611ac557829003601f168201915b50505050508152602001600b82018054611afb906155a8565b80601f0160208091040260200160405190810160405280929190818152602001828054611b27906155a8565b8015611b745780601f10611b4957610100808354040283529160200191611b74565b820191906000526020600020905b815481529060010190602001808311611b5757829003601f168201915b5050509183525050600c8201546020820152600d8201546040820152600e8201546060820152600f8201546080820152601082015460a082015260119091015460ff808216151560c08401526101008083048216151560e085015262010000830482161515908401526301000000820481161515610120840152600160201b820481161515610140840152600160281b820481161515610160840152600160301b909104161515610180909101528451859087908110611c4457634e487b7160e01b600052603260045260246000fd5b6020908102919091010152611c5a600186615521565b945050505b80611c69816155e3565b915050611639565b600554606090600080826001600160401b03811115611ca057634e487b7160e01b600052604160045260246000fd5b604051908082528060200260200182016040528015611cd957816020015b611cc6614c57565b815260200190600190039081611cbe5790505b50905060005b83811015612243576000611cf4826001615521565b6000818152600260208181526040928390208351610300810185528154815260018201546001600160a01b031692810192909252918201805494955091939092849290840191611d43906155a8565b80601f0160208091040260200160405190810160405280929190818152602001828054611d6f906155a8565b8015611dbc5780601f10611d9157610100808354040283529160200191611dbc565b820191906000526020600020905b815481529060010190602001808311611d9f57829003601f168201915b50505050508152602001600382015481526020016004820154815260200160058201548152602001600682018054611df3906155a8565b80601f0160208091040260200160405190810160405280929190818152602001828054611e1f906155a8565b8015611e6c5780601f10611e4157610100808354040283529160200191611e6c565b820191906000526020600020905b815481529060010190602001808311611e4f57829003601f168201915b50505050508152602001600782018054611e85906155a8565b80601f0160208091040260200160405190810160405280929190818152602001828054611eb1906155a8565b8015611efe5780601f10611ed357610100808354040283529160200191611efe565b820191906000526020600020905b815481529060010190602001808311611ee157829003601f168201915b50505050508152602001600882018054611f17906155a8565b80601f0160208091040260200160405190810160405280929190818152602001828054611f43906155a8565b8015611f905780601f10611f6557610100808354040283529160200191611f90565b820191906000526020600020905b815481529060010190602001808311611f7357829003601f168201915b50505050508152602001600982018054611fa9906155a8565b80601f0160208091040260200160405190810160405280929190818152602001828054611fd5906155a8565b80156120225780601f10611ff757610100808354040283529160200191612022565b820191906000526020600020905b81548152906001019060200180831161200557829003601f168201915b50505050508152602001600a8201805461203b906155a8565b80601f0160208091040260200160405190810160405280929190818152602001828054612067906155a8565b80156120b45780601f10612089576101008083540402835291602001916120b4565b820191906000526020600020905b81548152906001019060200180831161209757829003601f168201915b50505050508152602001600b820180546120cd906155a8565b80601f01602080910402602001604051908101604052809291908181526020018280546120f9906155a8565b80156121465780601f1061211b57610100808354040283529160200191612146565b820191906000526020600020905b81548152906001019060200180831161212957829003601f168201915b5050509183525050600c8201546020820152600d8201546040820152600e8201546060820152600f8201546080820152601082015460a082015260119091015460ff808216151560c08401526101008083048216151560e085015262010000830482161515908401526301000000820481161515610120840152600160201b820481161515610140840152600160281b820481161515610160840152600160301b90910416151561018090910152845185908790811061221657634e487b7160e01b600052603260045260246000fd5b602090810291909101015261222c600186615521565b94505050808061223b906155e3565b915050611cdf565b509392505050565b60008211801561225d57506005548211155b6122795760405162461bcd60e51b815260040161118490615499565b60008281526002602090815260409091208251909161229f916009840191850190614daa565b5060008381526002602081905260409091208254815560018084015490820180546001600160a01b0319166001600160a01b0390921691909117905581830180548493830191906112b7906155a8565b600060018360405161230191906151a0565b908152604051908190036020019020600680549192506000612322836155e3565b9091555050825161233c9060018301906020860190614daa565b506002810180546001600160a01b0319166001600160a01b0384161790556040517f39424c9407ac30223629511a00efdeb9175e3d425784e26c07c28265dd69ceab9061238c908590859061546f565b60405180910390a1505050565b6000811180156123ab57506005548111155b6123c75760405162461bcd60e51b815260040161118490615499565b600081815260026020819052604090912060118101805466ffffffffffff0019166101001790556001810180546001600160a01b031981166001600160a01b039091161790559081018054829182918190612421906155a8565b61242c929190614d23565b50600382015481600301556004820154816004015560058201548160050155600682018160060190805461245f906155a8565b61246a929190614d23565b50600782018160070190805461247f906155a8565b61248a929190614d23565b50600882018160080190805461249f906155a8565b6124aa929190614d23565b5060098201816009019080546124bf906155a8565b6124ca929190614d23565b50600a820181600a019080546124df906155a8565b6124ea929190614d23565b50600b820181600b019080546124ff906155a8565b61250a929190614d23565b50600c8281015490820155600d8083015490820155600e8083015490820155600f8083015490820155601080830154908201556011918201805492909101805460ff938416151560ff19821681178355835461010090819004861615150261ff001990911661ffff19909216919091171780825582546201000090819004851615150262ff0000198216811783558354630100000090819004861615150263ff0000001990911663ffff00001990921691909117178082558254600160201b90819004851615150264ff00000000198216811783558354600160281b90819004861615150265ff00000000001990911665ffff000000001990921691909117178082559154600160301b90819004909316151590920266ff000000000000199091161790555050565b600034116126835760405162461bcd60e51b815260206004820152601c60248201527f5072696365206d757374206265206174206c65617374203120776569000000006044820152606401611184565b600086116126d35760405162461bcd60e51b815260206004820152601f60248201527f7175616e74697479206d7573742062652067726561746572207468616e2030006044820152606401611184565b336126dd57600080fd5b600580549060006126ed836155e3565b909155505060048054906000612702836155e3565b9091555050600554600090815260026020526040808220600854915190926001600160a01b039092169182913480156108fc0292909190818181858888f19350505050158015612756573d6000803e3d6000fd5b5060055482556001820180546001600160a01b03191633179055885161278590600284019060208c0190614daa565b506003820188905542600483015534600583015586516127ae90600684019060208a0190614daa565b5085516127c49060078401906020890190614daa565b5084516127da9060088401906020880190614daa565b506040805160208101918290526000908190526127fb916009850191614daa565b50835161281190600a8401906020870190614daa565b50825161282790600b8401906020860190614daa565b50506000600c8201819055600e8201819055600d8201819055600f82018190556010820155601101805466ffffffffffffff1916600117905550505050505050565b600080612874613245565b90506128918161288b85662386f26fc10000614b82565b90614b8e565b9392505050565b6000811180156128aa57506005548111155b6128c65760405162461bcd60e51b815260040161118490615499565b600081815260026020819052604090912060118101805466ff0000000000ff1916600160301b1790556001810180546001600160a01b031981166001600160a01b039091161790559081018054829182918190612421906155a8565b600554606090600080805b83811015612a315760026000612944836001615521565b815260200190815260200160002060110160029054906101000a900460ff161515600115151480156129a0575060026000612980836001615521565b81526020810191909152604001600020601101546301000000900460ff16155b80156129d65750600260006129b6836001615521565b8152602081019190915260400160002060110154600160201b900460ff16155b8015612a0c5750600260006129ec836001615521565b8152602081019190915260400160002060110154600160281b900460ff16155b15612a1f57612a1c600184615521565b92505b80612a29816155e3565b91505061292d565b506000826001600160401b03811115612a5a57634e487b7160e01b600052604160045260246000fd5b604051908082528060200260200182016040528015612a9357816020015b612a80614c57565b815260200190600190039081612a785790505b50905060005b84811015610a9e5760026000612ab0836001615521565b815260200190815260200160002060110160029054906101000a900460ff16151560011515148015612b0c575060026000612aec836001615521565b81526020810191909152604001600020601101546301000000900460ff16155b8015612b42575060026000612b22836001615521565b8152602081019190915260400160002060110154600160201b900460ff16155b8015612b78575060026000612b58836001615521565b8152602081019190915260400160002060110154600160281b900460ff16155b156130c7576000612b8a826001615521565b6000818152600260208181526040928390208351610300810185528154815260018201546001600160a01b031692810192909252918201805494955091939092849290840191612bd9906155a8565b80601f0160208091040260200160405190810160405280929190818152602001828054612c05906155a8565b8015612c525780601f10612c2757610100808354040283529160200191612c52565b820191906000526020600020905b815481529060010190602001808311612c3557829003601f168201915b50505050508152602001600382015481526020016004820154815260200160058201548152602001600682018054612c89906155a8565b80601f0160208091040260200160405190810160405280929190818152602001828054612cb5906155a8565b8015612d025780601f10612cd757610100808354040283529160200191612d02565b820191906000526020600020905b815481529060010190602001808311612ce557829003601f168201915b50505050508152602001600782018054612d1b906155a8565b80601f0160208091040260200160405190810160405280929190818152602001828054612d47906155a8565b8015612d945780601f10612d6957610100808354040283529160200191612d94565b820191906000526020600020905b815481529060010190602001808311612d7757829003601f168201915b50505050508152602001600882018054612dad906155a8565b80601f0160208091040260200160405190810160405280929190818152602001828054612dd9906155a8565b8015612e265780601f10612dfb57610100808354040283529160200191612e26565b820191906000526020600020905b815481529060010190602001808311612e0957829003601f168201915b50505050508152602001600982018054612e3f906155a8565b80601f0160208091040260200160405190810160405280929190818152602001828054612e6b906155a8565b8015612eb85780601f10612e8d57610100808354040283529160200191612eb8565b820191906000526020600020905b815481529060010190602001808311612e9b57829003601f168201915b50505050508152602001600a82018054612ed1906155a8565b80601f0160208091040260200160405190810160405280929190818152602001828054612efd906155a8565b8015612f4a5780601f10612f1f57610100808354040283529160200191612f4a565b820191906000526020600020905b815481529060010190602001808311612f2d57829003601f168201915b50505050508152602001600b82018054612f63906155a8565b80601f0160208091040260200160405190810160405280929190818152602001828054612f8f906155a8565b8015612fdc5780601f10612fb157610100808354040283529160200191612fdc565b820191906000526020600020905b815481529060010190602001808311612fbf57829003601f168201915b5050509183525050600c8201546020820152600d8201546040820152600e8201546060820152600f8201546080820152601082015460a082015260119091015460ff808216151560c08401526101008083048216151560e085015262010000830482161515908401526301000000820481161515610120840152600160201b820481161515610140840152600160281b820481161515610160840152600160301b9091041615156101809091015284518590879081106130ac57634e487b7160e01b600052603260045260246000fd5b60209081029190910101526130c2600186615521565b945050505b806130d1816155e3565b915050612a99565b60008651116131235760405162461bcd60e51b8152602060048201526016602482015275125b5859d9481b985b59481a5cc81c995c5d5a5c995960521b6044820152606401611184565b600084511161316d5760405162461bcd60e51b8152602060048201526016602482015275125b5859d94812185cda081a5cc81c995c5d5a5c995960521b6044820152606401611184565b600085116131bd5760405162461bcd60e51b815260206004820152601a60248201527f20496d6167652070726963652073686f756c646e7420626520300000000000006044820152606401611184565b600780549060006131cd836155e3565b9091555050600754600081815260036020908152604090912091825587516131fd916001840191908a0190614daa565b5060028101869055845161321a9060038301906020880190614daa565b5083516132309060048301906020870190614daa565b50600581019290925560069091015550505050565b6000805460408051633fabe5a360e21b8152905183926001600160a01b03169163feaf968c9160048083019260a0929190829003018186803b15801561328a57600080fd5b505afa15801561329e573d6000803e3d6000fd5b505050506040513d601f19601f820116820180604052508101906132c29190615125565b5050509150506132d181614b9a565b91505090565b600554606090600080805b838110156133f457600260006132f9836001615521565b815260200190815260200160002060110160029054906101000a900460ff1615156001151514801561335c575060026000613335836001615521565b815260200190815260200160002060110160039054906101000a900460ff16151560011515145b8015613399575060026000613372836001615521565b815260200190815260200160002060110160049054906101000a900460ff16151560011515145b80156133cf5750600260006133af836001615521565b8152602081019190915260400160002060110154600160281b900460ff16155b156133e2576133df600184615521565b92505b806133ec816155e3565b9150506132e2565b506000826001600160401b0381111561341d57634e487b7160e01b600052604160045260246000fd5b60405190808252806020026020018201604052801561345657816020015b613443614c57565b81526020019060019003908161343b5790505b50905060005b84811015610a9e5760026000613473836001615521565b815260200190815260200160002060110160029054906101000a900460ff161515600115151480156134d65750600260006134af836001615521565b815260200190815260200160002060110160039054906101000a900460ff16151560011515145b80156135135750600260006134ec836001615521565b815260200190815260200160002060110160049054906101000a900460ff16151560011515145b8015613549575060026000613529836001615521565b8152602081019190915260400160002060110154600160281b900460ff16155b15613a9857600061355b826001615521565b6000818152600260208181526040928390208351610300810185528154815260018201546001600160a01b0316928101929092529182018054949550919390928492908401916135aa906155a8565b80601f01602080910402602001604051908101604052809291908181526020018280546135d6906155a8565b80156136235780601f106135f857610100808354040283529160200191613623565b820191906000526020600020905b81548152906001019060200180831161360657829003601f168201915b5050505050815260200160038201548152602001600482015481526020016005820154815260200160068201805461365a906155a8565b80601f0160208091040260200160405190810160405280929190818152602001828054613686906155a8565b80156136d35780601f106136a8576101008083540402835291602001916136d3565b820191906000526020600020905b8154815290600101906020018083116136b657829003601f168201915b505050505081526020016007820180546136ec906155a8565b80601f0160208091040260200160405190810160405280929190818152602001828054613718906155a8565b80156137655780601f1061373a57610100808354040283529160200191613765565b820191906000526020600020905b81548152906001019060200180831161374857829003601f168201915b5050505050815260200160088201805461377e906155a8565b80601f01602080910402602001604051908101604052809291908181526020018280546137aa906155a8565b80156137f75780601f106137cc576101008083540402835291602001916137f7565b820191906000526020600020905b8154815290600101906020018083116137da57829003601f168201915b50505050508152602001600982018054613810906155a8565b80601f016020809104026020016040519081016040528092919081815260200182805461383c906155a8565b80156138895780601f1061385e57610100808354040283529160200191613889565b820191906000526020600020905b81548152906001019060200180831161386c57829003601f168201915b50505050508152602001600a820180546138a2906155a8565b80601f01602080910402602001604051908101604052809291908181526020018280546138ce906155a8565b801561391b5780601f106138f05761010080835404028352916020019161391b565b820191906000526020600020905b8154815290600101906020018083116138fe57829003601f168201915b50505050508152602001600b82018054613934906155a8565b80601f0160208091040260200160405190810160405280929190818152602001828054613960906155a8565b80156139ad5780601f10613982576101008083540402835291602001916139ad565b820191906000526020600020905b81548152906001019060200180831161399057829003601f168201915b5050509183525050600c8201546020820152600d8201546040820152600e8201546060820152600f8201546080820152601082015460a082015260119091015460ff808216151560c08401526101008083048216151560e085015262010000830482161515908401526301000000820481161515610120840152600160201b820481161515610140840152600160281b820481161515610160840152600160301b909104161515610180909101528451859087908110613a7d57634e487b7160e01b600052603260045260246000fd5b6020908102919091010152613a93600186615521565b945050505b80613aa2816155e3565b91505061345c565b613ae86040518060400160405280601a81526020017f636f6e6669726d696e672e2e2e2e2e2e2e2e2e2e2e2e2e2e2e2e000000000000815250614bf0565b600082118015613afa57506005548211155b613b165760405162461bcd60e51b815260040161118490615499565b336001600160a01b0316600182604051613b3091906151a0565b908152604051908190036020019020600201546001600160a01b031614613bab5760405162461bcd60e51b815260206004820152602960248201527f596f7520646f6e742068617665207065726d697373696f6e20746f20636f6e6660448201526834b9369037b93232b960b91b6064820152608401611184565b6000828152600260205260409020601181015462010000900460ff1615613bd157600080fd5b60118101805462ff000019166201000017905542600d82015560008381526002602081905260409091208254815560018381015490820180546001600160a01b0319166001600160a01b0390921691909117905581830180548493830191906112b7906155a8565b600082118015613c4b57506005548211155b613c675760405162461bcd60e51b815260040161118490615499565b336001600160a01b0316600182604051613c8191906151a0565b908152604051908190036020019020600201546001600160a01b031614613cf95760405162461bcd60e51b815260206004820152602660248201527f596f7520646f6e742068617665207065726d697373696f6e20746f20746573746044820152651037b93232b960d11b6064820152608401611184565b60008281526002602052604090206011810154600160201b900460ff1615613d2057600080fd5b60118101805464ff000000001916600160201b17905542600f82015560008381526002602081905260409091208254815560018381015490820180546001600160a01b0319166001600160a01b0390921691909117905581830180548493830191906112b7906155a8565b600082118015613d9d57506005548211155b613db95760405162461bcd60e51b815260040161118490615499565b336001600160a01b0316600182604051613dd391906151a0565b908152604051908190036020019020600201546001600160a01b031614613e4e5760405162461bcd60e51b815260206004820152602960248201527f596f7520646f6e742068617665207065726d697373696f6e20746f2070726f646044820152683ab1b29037b93232b960b91b6064820152608401611184565b600082815260026020526040902060118101546301000000900460ff1615613e7557600080fd5b60118101805463ff0000001916630100000017905542600e82015560008381526002602081905260409091208254815560018381015490820180546001600160a01b0319166001600160a01b0390921691909117905581830180548493830191906112b7906155a8565b600554606090600080805b83811015613ff55760026000613f01836001615521565b815260200190815260200160002060110160029054906101000a900460ff16151560011515148015613f64575060026000613f3d836001615521565b815260200190815260200160002060110160039054906101000a900460ff16151560011515145b8015613f9a575060026000613f7a836001615521565b8152602081019190915260400160002060110154600160201b900460ff16155b8015613fd0575060026000613fb0836001615521565b8152602081019190915260400160002060110154600160281b900460ff16155b15613fe357613fe0600184615521565b92505b80613fed816155e3565b915050613eea565b506000826001600160401b0381111561401e57634e487b7160e01b600052604160045260246000fd5b60405190808252806020026020018201604052801561405757816020015b614044614c57565b81526020019060019003908161403c5790505b50905060005b84811015610a9e5760026000614074836001615521565b815260200190815260200160002060110160029054906101000a900460ff161515600115151480156140d75750600260006140b0836001615521565b815260200190815260200160002060110160039054906101000a900460ff16151560011515145b801561410d5750600260006140ed836001615521565b8152602081019190915260400160002060110154600160201b900460ff16155b8015614143575060026000614123836001615521565b8152602081019190915260400160002060110154600160281b900460ff16155b15614692576000614155826001615521565b6000818152600260208181526040928390208351610300810185528154815260018201546001600160a01b0316928101929092529182018054949550919390928492908401916141a4906155a8565b80601f01602080910402602001604051908101604052809291908181526020018280546141d0906155a8565b801561421d5780601f106141f25761010080835404028352916020019161421d565b820191906000526020600020905b81548152906001019060200180831161420057829003601f168201915b50505050508152602001600382015481526020016004820154815260200160058201548152602001600682018054614254906155a8565b80601f0160208091040260200160405190810160405280929190818152602001828054614280906155a8565b80156142cd5780601f106142a2576101008083540402835291602001916142cd565b820191906000526020600020905b8154815290600101906020018083116142b057829003601f168201915b505050505081526020016007820180546142e6906155a8565b80601f0160208091040260200160405190810160405280929190818152602001828054614312906155a8565b801561435f5780601f106143345761010080835404028352916020019161435f565b820191906000526020600020905b81548152906001019060200180831161434257829003601f168201915b50505050508152602001600882018054614378906155a8565b80601f01602080910402602001604051908101604052809291908181526020018280546143a4906155a8565b80156143f15780601f106143c6576101008083540402835291602001916143f1565b820191906000526020600020905b8154815290600101906020018083116143d457829003601f168201915b5050505050815260200160098201805461440a906155a8565b80601f0160208091040260200160405190810160405280929190818152602001828054614436906155a8565b80156144835780601f1061445857610100808354040283529160200191614483565b820191906000526020600020905b81548152906001019060200180831161446657829003601f168201915b50505050508152602001600a8201805461449c906155a8565b80601f01602080910402602001604051908101604052809291908181526020018280546144c8906155a8565b80156145155780601f106144ea57610100808354040283529160200191614515565b820191906000526020600020905b8154815290600101906020018083116144f857829003601f168201915b50505050508152602001600b8201805461452e906155a8565b80601f016020809104026020016040519081016040528092919081815260200182805461455a906155a8565b80156145a75780601f1061457c576101008083540402835291602001916145a7565b820191906000526020600020905b81548152906001019060200180831161458a57829003601f168201915b5050509183525050600c8201546020820152600d8201546040820152600e8201546060820152600f8201546080820152601082015460a082015260119091015460ff808216151560c08401526101008083048216151560e085015262010000830482161515908401526301000000820481161515610120840152600160201b820481161515610140840152600160281b820481161515610160840152600160301b90910416151561018090910152845185908790811061467757634e487b7160e01b600052603260045260246000fd5b602090810291909101015261468d600186615521565b945050505b8061469c816155e3565b91505061405d565b600360205260009081526040902080546001820180549192916146c6906155a8565b80601f01602080910402602001604051908101604052809291908181526020018280546146f2906155a8565b801561473f5780601f106147145761010080835404028352916020019161473f565b820191906000526020600020905b81548152906001019060200180831161472257829003601f168201915b50505050509080600201549080600301805461475a906155a8565b80601f0160208091040260200160405190810160405280929190818152602001828054614786906155a8565b80156147d35780601f106147a8576101008083540402835291602001916147d3565b820191906000526020600020905b8154815290600101906020018083116147b657829003601f168201915b5050505050908060040180546147e8906155a8565b80601f0160208091040260200160405190810160405280929190818152602001828054614814906155a8565b80156148615780601f1061483657610100808354040283529160200191614861565b820191906000526020600020905b81548152906001019060200180831161484457829003601f168201915b5050505050908060050154908060060154905087565b600754606090600080826001600160401b038111156148a657634e487b7160e01b600052604160045260246000fd5b60405190808252806020026020018201604052801561491757816020015b6149046040518060e00160405280600081526020016060815260200160008152602001606081526020016060815260200160008152602001600081525090565b8152602001906001900390816148c45790505b50905060005b83811015612243576000614932826001615521565b90506000600360008381526020019081526020016000209050806040518060e001604052908160008201548152602001600182018054614971906155a8565b80601f016020809104026020016040519081016040528092919081815260200182805461499d906155a8565b80156149ea5780601f106149bf576101008083540402835291602001916149ea565b820191906000526020600020905b8154815290600101906020018083116149cd57829003601f168201915b5050505050815260200160028201548152602001600382018054614a0d906155a8565b80601f0160208091040260200160405190810160405280929190818152602001828054614a39906155a8565b8015614a865780601f10614a5b57610100808354040283529160200191614a86565b820191906000526020600020905b815481529060010190602001808311614a6957829003601f168201915b50505050508152602001600482018054614a9f906155a8565b80601f0160208091040260200160405190810160405280929190818152602001828054614acb906155a8565b8015614b185780601f10614aed57610100808354040283529160200191614b18565b820191906000526020600020905b815481529060010190602001808311614afb57829003601f168201915b5050505050815260200160058201548152602001600682015481525050848681518110614b5557634e487b7160e01b600052603260045260246000fd5b6020908102919091010152614b6b600186615521565b945050508080614b7a906155e3565b91505061491d565b60006128918284615559565b60006128918284615539565b600080821215614bec5760405162461bcd60e51b815260206004820181905260248201527f53616665436173743a2076616c7565206d75737420626520706f7369746976656044820152606401611184565b5090565b614c3381604051602401614c04919061545c565b60408051601f198184030181529190526020810180516001600160e01b031663104c13eb60e21b179052614c36565b50565b80516a636f6e736f6c652e6c6f67602083016000808483855afa5050505050565b6040518061030001604052806000815260200160006001600160a01b031681526020016060815260200160008152602001600081526020016000815260200160608152602001606081526020016060815260200160608152602001606081526020016060815260200160008152602001600081526020016000815260200160008152602001600081526020016000151581526020016000151581526020016000151581526020016000151581526020016000151581526020016000151581526020016000151581525090565b828054614d2f906155a8565b90600052602060002090601f016020900481019282614d515760008555614d9e565b82601f10614d625780548555614d9e565b82800160010185558215614d9e57600052602060002091601f016020900482015b82811115614d9e578254825591600101919060010190614d83565b50614bec929150614e1e565b828054614db6906155a8565b90600052602060002090601f016020900481019282614dd85760008555614d9e565b82601f10614df157805160ff1916838001178555614d9e565b82800160010185558215614d9e579182015b82811115614d9e578251825591602001919060010190614e03565b5b80821115614bec5760008155600101614e1f565b600082601f830112614e43578081fd5b81356001600160401b0380821115614e5d57614e5d615614565b604051601f8301601f19908116603f01168101908282118183101715614e8557614e85615614565b81604052838152866020858801011115614e9d578485fd5b8360208701602083013792830160200193909352509392505050565b805169ffffffffffffffffffff81168114614ed357600080fd5b919050565b60008060408385031215614eea578182fd5b82356001600160401b03811115614eff578283fd5b614f0b85828601614e33565b92505060208301356001600160a01b0381168114614f27578182fd5b809150509250929050565b600080600080600080600060e0888a031215614f4c578283fd5b87356001600160401b0380821115614f62578485fd5b614f6e8b838c01614e33565b985060208a0135975060408a0135915080821115614f8a578485fd5b614f968b838c01614e33565b965060608a0135915080821115614fab578485fd5b614fb78b838c01614e33565b955060808a0135915080821115614fcc578485fd5b614fd88b838c01614e33565b945060a08a0135915080821115614fed578384fd5b614ff98b838c01614e33565b935060c08a013591508082111561500e578283fd5b5061501b8a828b01614e33565b91505092959891949750929550565b60008060008060008060c08789031215615042578182fd5b86356001600160401b0380821115615058578384fd5b6150648a838b01614e33565b9750602089013596506040890135915080821115615080578384fd5b61508c8a838b01614e33565b955060608901359150808211156150a1578384fd5b506150ae89828a01614e33565b9350506080870135915060a087013590509295509295509295565b6000602082840312156150da578081fd5b5035919050565b600080604083850312156150f3578182fd5b8235915060208301356001600160401b0381111561510f578182fd5b61511b85828601614e33565b9150509250929050565b600080600080600060a0868803121561513c578081fd5b61514586614eb9565b945060208601519350604086015192506060860151915061516860808701614eb9565b90509295509295909350565b6000815180845261518c816020860160208601615578565b601f01601f19169290920160200192915050565b600082516151b2818460208701615578565b9190910192915050565b60006020808301818452808551808352604092508286019150828160051b870101848801865b8381101561539257603f19898403018552815180518452878101516001600160a01b031688850152868101516103008886018190529061522482870182615174565b606084810151908801526080808501519088015260a0808501519088015260c080850151888303828a0152919350915061525e8382615174565b9250505060e080830151868303828801526152798382615174565b9250505061010080830151868303828801526152958382615174565b9250505061012080830151868303828801526152b18382615174565b9250505061014080830151868303828801526152cd8382615174565b9250505061016080830151868303828801526152e98382615174565b61018085810151908901526101a080860151908901526101c080860151908901526101e080860151908901526102008086015190890152610220808601511515908901526102408086015115159089015261026080860151151590890152610280808601511515908901526102a0808601511515908901526102c0808601511515908901526102e0948501511515949097019390935250505093860193908601906001016151e2565b509098975050505050505050565b60006020808301818452808551808352604092508286019150828160051b870101848801865b8381101561539257603f19898403018552815160e08151855288820151818a8701526153f482870182615174565b9150508782015188860152606080830151868303828801526154168382615174565b92505050608080830151868303828801526154318382615174565b60a0858101519089015260c094850151949097019390935250505093860193908601906001016153c6565b6020815260006128916020830184615174565b6040815260006154826040830185615174565b905060018060a01b03831660208301529392505050565b6020808252601290820152711bdc99195c881a59081b9bdd081d985b1a5960721b604082015260600190565b87815260e0602082015260006154de60e0830189615174565b87604084015282810360608401526154f68188615174565b9050828103608084015261550a8187615174565b60a0840195909552505060c0015295945050505050565b60008219821115615534576155346155fe565b500190565b60008261555457634e487b7160e01b81526012600452602481fd5b500490565b6000816000190483118215151615615573576155736155fe565b500290565b60005b8381101561559357818101518382015260200161557b565b838111156155a2576000848401525b50505050565b600181811c908216806155bc57607f821691505b602082108114156155dd57634e487b7160e01b600052602260045260246000fd5b50919050565b60006000198214156155f7576155f76155fe565b5060010190565b634e487b7160e01b600052601160045260246000fd5b634e487b7160e01b600052604160045260246000fdfea264697066735822122079dd32da08da0253b72a4da7591185ba242cda2a5b4bca9667c4c63a33c8f66e64736f6c63430008040033",
  "linkReferences": {},
  "deployedLinkReferences": {}
}